:1000000012C051CA2BC02AC0BACAB0C927C026C064
:100010009CC9ABC823C0C4C621C018C61FC01EC01F
:10002000B8CA58CA1BC011241FBECFE5D4E0DEBF3A
:10003000CDBF10E0A0E6B0E0E0ECFBE102C005902F
:100040000D92A637B107D9F713E0A6E7B0E001C0DB
:100050001D92AC39B107E1F73BD4B1CDD1CF40917E
:100060008A0080916300841710F4482FAB9A209186
:10007000880030918900293C3105C8F01BBC1ABCAE
:1000800019BC18BC13BC82B3877C82BBAB9A80912D
:100090008C0390918D03019690938D0380938C0334
:1000A0002150304030938900209388000895842F98
:1000B00099279BBD8ABD99BD88BD43BD0895809198
:1000C00088009091890090938103809380038091B0
:1000D0008600992790938303809382038091770011
:1000E0009091780090938503809384038091A4007D
:1000F0009091A500909387038093860383B59927F9
:10010000909389038093880308951BBC1ABC19BC83
:1001100018BC13BC91E09FBD81E485BD8EE087BB18
:1001200088B3817F88BB9EBD089592B7980F82B730
:10013000891B87FDFCCF0895CF93C82F7894C150B9
:10014000CF3F49F0AB9A8CE291E074D8AB988CE247
:1001500091E070D8F4CF88EE93E06CD8CF910895F9
:10016000AF92BF92CF92DF92EF92FF920F931F93C5
:10017000CF93DF93C82F8CE2A82E81E0B82EC12C3C
:10018000D12C1092AB00439885E090E090938B00C7
:1001900080938A0064DF00DB8CE291E037D8909393
:1001A000B0028093AF0211C0A5D8809188009091D1
:1001B00089008937910548F082B3877C82BB1BBCDC
:1001C0001ABC19BC18BC13BD34C08091AF02909109
:1001D000B00225D8182F882339F3DD27D0938B0060
:1001E000C0938A00EE24FF248701EA14FB040C0567
:1001F0001D0578F480916D00882311F431D501C07C
:100200009AD784E692DF0894E11CF11C011D111DB0
:10021000ECCF55DF6FD88091880090918900CD9701
:10022000B0F082B3877C82BB1BBC1ABC19BC18BC63
:1002300013BC81E08FBD81E485BD8EE087BB88B3B0
:10024000817F88BB8AE078DF80E090E032C0C60121
:10025000B5012FE030E040E050E08FDCA21AB30A95
:10026000C40AD50A0894A108B108C108D10889E1D7
:10027000A816B104C104D10418F481E090E019C0BB
:100280008BDA8091AD008F5F8093AD008091AD00DF
:1002900066E053DC9093AD00E0D7D0938B00C09321
:1002A0008A00DDDE449B9ECF82B390E8892782BB23
:1002B00099CFDF91CF911F910F91FF90EF90DF9039
:1002C000CF90BF90AF900895CF93DF93EC0121972B
:1002D0008FEFCF3FD807B9F00DD88091B102909140
:1002E000B20288589F4F2091880030918900821770
:1002F000930768F782B3877C82BB88B3817F88BB12
:1003000081E090E002C080E090E0DF91CF9108951D
:1003100001972FEF8F3F9207D9F780E090E0089583
:100320009F92AF92BF92CF92DF92EF92FF920F9384
:100330001F93CF93DF93CDB7DEB725970FB6F89411
:10034000DEBF0FBECDBF5E010894A11CB11C85E0CD
:10035000E8E6F0E0D50101900D928A95E1F7CC2412
:10036000DC2C02E3902EAB9880916100F501E80F40
:10037000F11D8081282F33278CE291E0289FF00126
:10038000299FF00D389FF00D1124CF0153D7C09253
:10039000AB004398F8948AE0F6D482B3877C82BBA2
:1003A0001BBC1ABC19BC18BC13BC81E08FBD81E416
:1003B00085BD8EE087BB88B3817F88BB10928700A4
:1003C00082E390E081DF8091870099279093B202C9
:1003D0008093B10210928900109288008CB1803213
:1003E00049F51FEFE12EF12EB8E29B2E8FE5CBD41D
:1003F00025C0A4E0CA2E84E3C6D482B3877C82BB26
:1004000088B3817F88BB4EC0F5E0CF2E85E3BBD497
:1004100082B3877C82BB88B3817F88BB7AC0E6E0E9
:10042000CE2E86E3B0D482B3877C82BB88B3817F33
:1004300088BBA8C078EEE72E73E0F72E10928900F3
:100440001092880000E010E00E151F0558F5939AF1
:1004500081E090E039DF82B3877C82BB88B3817F03
:1004600088BB85E090E054DFC39A81E090E02CDF08
:1004700082B3877C82BB88B3817F88BB8091B102C5
:100480009091B202890D911D2091880030918900D0
:100490008217930708F4ADCF85E090E039DF0F5F56
:1004A0001F4FD2CF80E197E233DF10928900109284
:1004B000880000E010E00E151F0558F5949A81E0C1
:1004C00090E002DF82B3877C82BB88B3817F88BBE8
:1004D00085E090E01DDFC29A81E090E0F5DE82B316
:1004E000877C82BB88B3817F88BB8091B102909169
:1004F000B202890D911D20918800309189008217E8
:10050000930708F481CF85E090E002DF0F5F1F4F73
:10051000D2CF109289001092880080E197E2F8DE35
:1005200000E010E00E151F0558F5959A81E090E067
:10053000CBDE82B3877C82BB88B3817F88BB85E0BA
:1005400090E0E6DEC19A81E090E0BEDE82B3877C77
:1005500082BB88B3817F88BB8091B1029091B20247
:10056000890D911D20918800309189008217930791
:1005700008F455CF85E090E0CBDE0F5F1F4FD2CF60
:10058000CC2019F08C2DD8DDFDCF8091760087B975
:1005900082B3877C82BB88B3817F88BB949A959A0B
:1005A000109289001092880008E710E0C39A81E059
:1005B00090E0AEDE80E090E089D6C3971CF0F1E0D9
:1005C000DF2A02C04EEFD42218BA8CE291E0A0DEFE
:1005D0000150104017FFEACF82B3877C82BB88B3FB
:1005E000817F88BB939A959A04E810E0C29A81E0D3
:1005F00090E08EDE81E090E069D6C3971CF052E077
:10060000D52A02C08DEFD82218BA8CE291E080DEA4
:100610000150104017FFEACF82B3877C82BB88B3BA
:10062000817F88BB939A949A0EE610E0C19A81E08C
:1006300090E06EDE82E090E049D6C3971CF0A4E023
:10064000DA2A02C0BBEFDB2218BA8AE491E060DE4E
:100650000150104017FFEACF82B3877C82BB88B37A
:10066000817F88BB939A08E710E0C29A81E090E00E
:100670004FDE80E090E02AD6813891051CF0E7EF4C
:10068000DE2202C0F8E0DF2A18BA8AE491E040DEF8
:100690000150104017FFE9CF959A04E810E0C29A84
:1006A00081E090E035DE82E090E010D6813891055F
:1006B0001CF04FEDD42202C050E2D52A18BA88E6C9
:1006C00091E026DE0150104017FFE9CF82B3877C0E
:1006D00082BB88B3817F88BB82B3877C82BB88B3AF
:1006E000817F88BB949A0EE610E0C19A81E090E089
:1006F0000FDE81E090E0EAD5813891051CF08FEEA5
:10070000D82202C0A0E1DA2A18BA88E691E000DE19
:100710000150104017FFE9CF82B3877C82BB88B3BA
:10072000817F88BB789480916100A80EB11CF5018F
:10073000208184E090E0821B91092CE231E0829FCD
:10074000A001839F500D929F500D1124CA0172D5B4
:100750008D2D992780FD04C061E0C62E81E41DC067
:1007600081FD04C052E0C52E82E417C082FD04C0A2
:1007700043E0C42E83E411C083FD04C034E0C32EE3
:1007800081E60BC084FD04C025E0C22E82E605C0D0
:1007900085FD07C096E0C92E83E68CB98C2DCCDC94
:1007A000FDCF8C2DC9DC8EE2EED225960FB6F894E3
:1007B000DEBF0FBECDBFDF91CF911F910F91FF9094
:1007C000EF90DF90CF90BF90AF909F900895809171
:1007D000820090918300892B09F05BC040918000DA
:1007E000509181004115510599F0909195008FEF3E
:1007F000989FC001112468EC70E0ABD970938D0014
:1008000060938C001092600089B78F7D89BF32C0E1
:100810008091A100853180F181E08093600020917A
:10082000A4003091A50081E02D32380708F09A012C
:10083000293C310510F028EC30E02B30310528F44C
:1008400050938D0040938C0015C08CEF90E0289F52
:10085000A001299F500D389F500D1124CA01885DB9
:10086000994064EB70E075D9CB01039690938D00AD
:1008700080938C00AB981AC080918C0090918D0071
:10088000009729F0019790938D0080938C00AB9A8C
:100890000DC080919103992790938D0080938C00D7
:1008A00010926000AB9889B78F7D89BF80918C00D2
:1008B00090918D008F3F910539F030F08FEF90E0EF
:1008C00090938D0080938C0080918C0099270895DF
:1008D000CFE5D4E0DEBFCDBFDD2488E084BB85BB9F
:1008E0008AE381BBD2BA8EE087BB81E388BB84E018
:1008F000809361008AE08093AE00879B06C08CE005
:100900008093AE0080EC809376008AEB81BBD0D3DD
:1009100074D47894FADB80E5D5D50AD585E690E0E5
:1009200075D486E690E072D487E690E06FD4909319
:10093000B0028093AF028EEF90E068D47C018DEE20
:1009400093E064D48C018EEE93E060D403C03FDF6B
:10095000882339F48091AF029091B00260D488234B
:10096000B1F38091AE008C3010F4979A01C0979843
:1009700010928B0010928A0072DB88E080BF81E0C9
:1009800087B98AE090E042D49093B0028093AF029E
:1009900081E090E090938303809382031092A500FE
:1009A0001092A40014DF882309F4BADC81E388BB29
:1009B0000EDF992790938B0080938A008091AD0081
:1009C0008D1569F010926400109265008AEF90E036
:1009D0001DD49093B0028093AF02D090AD00C0912F
:1009E0008A00D0918B002097F9F410927B0010922E
:1009F0006500C50114D4882311F11092AB0043980F
:100A000091E09093640082B3877C82BBDBBDCABD5A
:100A1000D9BDC8BD13BC9FBD81E485BD8EE087BB39
:100A200088B3817F88BB0BC080916400882319F054
:100A300081E080937B008CED95E0E8D35C018091B0
:100A40006400882321F010928B0010928A0007DB4B
:100A5000809165008F5F80936500813009F0A8CF99
:100A600080916400882341F08091AE008C3010F4B6
:100A7000979A01C097983ED4C701D1D38823A9F192
:100A800082E390E0C3D37C0180918600482F5527F4
:100A900020918800309189004217530710F48F5F2E
:100AA00004C02417350718F4815080938600293C30
:100AB000310548F080916300982F92959695977034
:100AC000891B809363008091860090916300893731
:100AD00038F0992319F0915090936300AB9A05C0B8
:100AE0009F3F19F09F5F90936300C80198D38823BC
:100AF00099F08AE090E08AD38C01809179009091FE
:100B00007A00909378008093770010927A00109288
:100B1000790081E0809362008091AF029091B002F1
:100B20007ED3882331F08091770090917800892BD3
:100B300029F080917B00882309F43ACFC1E0C0936B
:100B400064001092AB00439884E690E05FD39093EA
:100B5000B0028093AF0280917B00882309F428CFF4
:100B6000AB981092870010927B008AE0F9DA882314
:100B700009F465C08091AE008C3010F4979A01C0E2
:100B80009798109264008091AD0081508093AD00E1
:100B900081E090E090938B0080938A0060DA88B1C6
:100BA0008C7F88B981E08093AB0088B18A6088B976
:100BB00084E190E02BD39093B0028093AF028091B8
:100BC000AF029091B0022BD38823C9F38FE090E05D
:100BD00090938B0080938A0042DA8CE291E016D3E6
:100BE0009093B0028093AF021BC0809188009091D7
:100BF0008900CD97A8F082B3877C82BB1BBC1ABC4E
:100C000019BC18BC23BD11E01FBD81E485BD8EE079
:100C100087BB88B3817F88BB8AE08EDA10937B0024
:100C20008091AF029091B002FAD2282F8823E9F286
:100C300082E390E0EBD28C0187E0D82EB9CEC7DDFD
:100C4000882309F4B5CEC0937B00B2CE1F920F92D9
:100C50000FB60F9211240F900FBE0F901F90189592
:100C60005E9B24C080916D008823E1F48091960002
:100C70009091970001969093970080939600FC01C5
:100C8000EC54FD4FE081ED3019F08436910539F4D4
:100C9000109297001092960081E080936D00589A10
:100CA000ECB90895109297001092960008951F9342
:100CB000CF93DF93EC0110E0662309F460C0A22F0C
:100CC000BB271297E42FFF27E65EFC4F30813D5390
:100CD0004F5FE42FFF27E65EFC4F50815D534F5F6F
:100CE000E42FFF27E65EFC4F70817D534F5FE42FBA
:100CF000FF27E65EFC4FE081ED534F5F842F99277D
:100D0000A817B907E4F1832F9927880F991F880F37
:100D1000991F352F32953F70382B852F99278F706B
:100D2000907054E0880F991F5A95E1F7572F569508
:100D30005695582B872F99278370907026E0880F3F
:100D4000991F2A95E1F78E2B61506F3FC1F0FE018C
:100D5000E10FF11D30831F5F61506F3F81F0FE0195
:100D6000E10FF11D50831F5F61506F3F41F0FE01A5
:100D7000E10FF11D80831F5F662309F0A3CFDF9190
:100D8000CF911F910895CF93C82F8A3011F48DE031
:100D9000FADF5D9BFECFCCB980E090E0CF91089563
:100DA0001F920F920FB60F9211242F933F934F93E0
:100DB0005F936F937F938F939F93AF93BF93CF93E3
:100DC000DF93EF93FF938CB18093940040919C004C
:100DD000443610F010929D00509194005D3009F05F
:100DE00064C080919D00823009F05FC010929D0028
:100DF000A42FBB27A65EBC4FFD01329780812091B6
:100E0000980030919900281B3109ED0121978881C4
:100E1000281B3109C9019F70909399008093980015
:100E200066E0969587956A95E1F7982F935C909385
:100E30009A002F733070235C20939B008081981759
:100E400009F082C08881281709F07EC040938E0087
:100E50005C9380911C03823549F488E190E02CE09A
:100E60000FB6F894A89581BD0FBE21BD80911C03DB
:100E70008ADF80911C03843709F066C020918E00C0
:100E800043E064E08FE890E012DF80916100E82F9A
:100E9000FF27E257FF4F80818093950084EF91E018
:100EA00090938100809380004FC020919D00822FFD
:100EB000992781309105F9F0823091051CF4892B36
:100EC00021F040C0029711F13DC08091940083321F
:100ED00039F480919300882319F481E080939D0078
:100EE0008091940080931A0381E080939C0080910C
:100EF0009400992722C02F5F20939D00E42FFF27A5
:100F0000E65EFC4F80919400808309C0E42FFF27A8
:100F1000E65EFC4F809194008083443620F44F5F5E
:100F200040939C0002C010929D00209194008091FB
:100F3000980090919900820F911D90939900809351
:100F4000980002C010929D00FF91EF91DF91CF9128
:100F5000BF91AF919F918F917F916F915F914F91D1
:100F60003F912F910F900FBE0F901F901895AC01DD
:100F7000A0E0B0E09D01A817B90748F4E4EBF2E067
:100F80008191280F311D1196A417B507C8F33F7042
:100F9000FD01EC54FD4FC90176E0969587957A9551
:100FA000E1F7835C80831196FD01EC54FD4F2F73B4
:100FB0003070822F835C8083AB54BD4F8DE08C9367
:100FC00010926D008091B4028CB908951F93CF9355
:100FD000DF93382FEA01722F10E083E28093B4028E
:100FE0006093B5023093B602A3E0B0E0772309F432
:100FF00058C0772311F4972F07C0FE01E10FF11DB0
:101000001F5F9081715011F4472F0EC0FE01E10F58
:10101000F11D1F5F4081715039F0FE01E10FF11D9C
:101020001F5F6081715001C0672FFD01EC54FD4FBF
:10103000892F86958695835C80831196FD01EC54FB
:10104000FD4F892F99278370907024E0880F991F96
:101050002A95E1F755279A0194E0369527959A95B8
:10106000E1F7822B835C80831196FD01EC54FD4FE8
:101070004F705070440F551F440F551F862F9927EE
:1010800026E0969587952A95E1F7842B835C8083EB
:101090001196FD01EC54FD4F6F73635C60831196F4
:1010A000A5CFCD0164DFDF91CF911F910895089501
:1010B00088E18AB9599A579A80E189B960E070E06D
:1010C00083EC96E0DAD388EC90E0A0D090931903FB
:1010D000809318038AE057DE82E455DE8CE453DE09
:1010E0008AE351DE86E54FDE80E34DDE8EE24BDEA5
:1010F00084E349DE81E347DE8AE045DE88E443DEBF
:1011000087E541DE8AE33FDE81E33DDE8EE23BDEC2
:101110008091AE008A5D37DE8AE035DE81E433DE21
:1011200084E431DE82E52FDE8AE32DDE80916100EA
:10113000805D29DE089580911803909119036FD086
:10114000882391F080916D00882371F022E14EE7B1
:1011500053E06091B30284E439DF82E390E056D03B
:10116000909319038093180308951F920F920FB65E
:101170000F9211248F939F93809190038F5F8093A0
:1011800090038091A00081508093A0008F3F71F563
:1011900083E08093A00080919E0090919F00019633
:1011A00090939F0080939E00809182009091830095
:1011B000009729F00197909383008093820080919B
:1011C000A200882331F08091A20081508093A20078
:1011D00002C08093A10080918000909181000097CF
:1011E00029F0019790938100809380009F918F91C7
:1011F0000F900FBE0F901F90189582E083BF89B7A4
:10120000816089BF89B7806489BF089520919E005D
:1012100030919F00280F391FC9010197089520912F
:101220009E0030919F00821B930B892F9927807815
:1012300099270895CF93DF93E9DFEC01CE01EFDF2B
:101240008823E1F3DF91CF91089586EA86B98091F2
:101250007600876087B9369A089527B19091760015
:10126000966097B910BE83ED86B9349A97B9369ACD
:10127000349BFECF27B924B135B1220F331F220F83
:10128000331F4091880050918900CA0163E0880FA4
:10129000991F6A95E1F7841B950B280F391F83E08E
:1012A000369527958A95E1F7309389002093880039
:1012B0008091870099278217930720F480918800F6
:1012C0008093870016B888E080BF089527B1909179
:1012D0007600982B97B910BE83ED86B9349A97B9EA
:1012E000369A349BFECF27B916B888E080BF84B108
:1012F00095B1089586E0EADF9C01220F331F220F8B
:10130000331F293C310510F028EC30E03093890080
:10131000209388008091870099278217930720F4F3
:10132000809188008093870016B888E080BF089578
:101330008EB5806C8EBD8EB580648EBD89B780629F
:1013400089BF89B7846089BF08951F920F920FB635
:101350000F9211248F938091A3008F5F8093A3003D
:101360008F910F900FBE0F901F9018951F920F92A4
:101370000FB60F9211242F933F938F939F930EB428
:1013800006FE0FC01092A30086B597B59093A700F4
:101390008093A6008EB58F7B8EBD84E68093A200DD
:1013A00079C08EB580648EBD26B537B58091A60014
:1013B0009091A700281B390B8091A3009927982FA3
:1013C0008827990F280F391F689414F836952795A8
:1013D0001694E1F73093A9002093A80028513140DA
:1013E00030F488E191E09093A9008093A8002091C7
:1013F000A8003091A900285131403093A9002093D2
:10140000A8008091A4009091A5008217930730F462
:101410008091A4009091A50001960CC08091A40039
:101420009091A5002817390748F48091A400909165
:10143000A50001979093A5008093A4002091A4009B
:101440003091A500C901880F991F880F991F880F37
:10145000991F821B930B2091A8003091A900820F45
:10146000931F23E0969587952A95E1F79093A9001D
:101470008093A8009093A5008093A4008091A10080
:101480008F3F29F08091A1008F5F8093A10081E0C0
:10149000809362009F918F913F912F910F900FBE8B
:1014A0000F901F9018951F920F920FB60F92112454
:1014B0008F938AB78F7B8ABF8F910F900FBE0F904B
:1014C0001F90189590916100990F980F92B985EC33
:1014D00086BF08951F920F920FB60F9211248F931B
:1014E0009F9381B19927887F907080389105E9F0AA
:1014F0008138910534F40097B1F18036910579F087
:1015000035C0883B9105D9F0893B910524F4883A90
:101510009105A9F02BC0883F910511F127C086B72E
:10152000806886BF1092AA0023C083B18093910384
:1015300084EF91E090938300809382000EC090919D
:10154000AA00992339F48091860083B99F5F909314
:10155000AA0003C08091630083B986B7806807C082
:1015600086B7806986BF86B7806986BF85EC86BFEF
:101570009F918F910F900FBE0F901F9018951F9203
:101580000F920FB60F9211240F900FBE0F901F9065
:1015900018951F920F920FB60F9211242F933F931D
:1015A0004F935F936F937F938F939F93AF93BF936B
:1015B000CF93EF93FF93459B02C0C1E001C0C0E011
:1015C0008091AD0099278230910509F451C0833094
:1015D00091052CF4009779F0019741F1BFC0843058
:1015E000910509F478C0843091050CF45AC0059730
:1015F00009F48BC0B3C081EA8FBD81E685BD88E068
:1016000087BBCC2371F082B3877E82BB959A809191
:101610006200811122DE409880917600816087B956
:101620001BC082B3877D82BB949A98C082B3877EA9
:1016300082BB959ACC23B1F481EA8FBD81E685BD4A
:1016400084E087BB80916200811107DE8091760083
:1016500087B988B1836088B98091AD008F5F80932E
:10166000AD006CC081EA8FBD81E685BD88E075C0A4
:1016700081EA8FBD81E685BD84E087BBCC2361F024
:1016800082B38F7C82BB939A809162008111E5DDE9
:1016900080917600826031C082B3877E82BB959A4A
:1016A0005DC082B38F7C82BB939ACC2371F481EAB4
:1016B0008FBD81E685BD82E087BB8091620081118C
:1016C000CCDD809176008160C3CF81EA8FBD81E659
:1016D00085BD84E042C081EA8FBD81E685BD82E0A0
:1016E00087BBCC2369F082B3877D82BB949A8091BB
:1016F00062008111B2DD8091760087B94098ACCF4D
:1017000082B38F7C82BB939A29C082B3877D82BBD0
:10171000949ACC23E9F481EA8FBD81E685BD88E007
:1017200087BB80916200811198DD80917600826094
:1017300087B988B1836088B9C093AD008091790082
:1017400090917A00019690937A008093790006C078
:1017500081EA8FBD81E685BD82E087BB459903C0E4
:10176000CC2309F028CF459B03C0CC2309F423CF19
:1017700010926200FF91EF91CF91BF91AF919F9135
:101780008F917F916F915F914F913F912F910F902A
:101790000FBE0F901F9018958091AD009927823051
:1017A000910579F1833091052CF4009771F0019740
:1017B000D1F008958430910509F444C08430910536
:1017C0008CF1059709F44CC0089581EA8FBD81E63C
:1017D00085BD88E087BB82B3877D82BB949A809168
:1017E000760082601AC081EA8FBD81E685BD88E0FF
:1017F00087BB82B3877E82BB959A80917600816099
:101800001EC081EA8FBD81E685BD84E087BB82B3BF
:10181000877E82BB959A8091760087B988B1836074
:1018200088B9089581EA8FBD81E685BD84E087BBD4
:1018300082B38F7C82BB939A80917600826087B955
:101840004098089581EA8FBD81E685BD82E087BB1F
:1018500082B38F7C82BB939A809176008160DDCFCA
:1018600081EA8FBD81E685BD82E087BB82B3877D3B
:1018700082BB949A80917600E2CF0F931F93CF930F
:10188000DF938C01EB01009711F4672BB9F16EE047
:1018900070E081E090E037D0FC01892B71F180E8A5
:1018A0008383209771F0D387C28781E883838091F7
:1018B000920390919303892B21F4F0939303E09387
:1018C000920301151105C9F0118700878381826099
:1018D00083838091940390919503892B71F4F09305
:1018E0009503E09394038091960390919703892B3D
:1018F00021F4F0939703E0939603CF01DF91CF910A
:101900001F910F9108950F931F93CF93DF93869F9D
:101910008001879F100D969F100D1124C8010DD0D6
:10192000EC01009721F0A80160E070E0FFD0CE014B
:10193000DF91CF911F910F910895CF93DF93AC0169
:10194000029710F442E050E020E030E0A0919A03CA
:10195000B0919B03BD01F901109709F44CC08D9122
:101960009C9111978417950731F14817590738F45E
:101970002115310519F08217930708F49C01FD0128
:10198000A281B381109759F721153105A1F1C90141
:10199000841B950B049708F4A901DB01E0E0F0E05B
:1019A000109749F18D919C91119782179307F9F443
:1019B0004217530779F4ED018A819B81309719F022
:1019C0009383828304C090939B0380939A03CD01F9
:1019D00002964DC0241B350BFD01E20FF31F41930E
:1019E0005193225030402D933C93CF0140C0FD01D4
:1019F000A281B381D5CF8091980390919903892BCF
:101A000041F48091710090917200909399038093BA
:101A10009803E0916F00F0917000309741F4EDB7BA
:101A2000FEB78091730090917400E81BF90BA091B0
:101A30009803B0919903AE17BF07B8F49F012A1B12
:101A40003B0B2417350788F0CA010296281739077F
:101A500060F0CD01840F951F0296909399038093B7
:101A600098034D935D93CD0102C080E090E0DF913B
:101A7000CF910895CF93DF93009709F454C0DC0110
:101A80001297ED011B821A8280919A0390919B0319
:101A9000009721F1FC0140E050E0EA17FB0718F144
:101AA000ED01FB83EA832D913C911197C20FD31F67
:101AB000CE0102968E179F0771F48A819B81280FB1
:101AC000391F2E5F3F4F11963C932E938281938155
:101AD000FD01938382834115510559F4B0939B0313
:101AE000A0939A0320C0AF010280F381E02D3097CC
:101AF000A1F6EA01BB83AA83CA0102962881398133
:101B0000820F931F8A179B0771F48D919C911197F7
:101B1000280F391F2E5F3F4F39832883FD018281B3
:101B200093819B838A83DF91CF910895DC0101C06B
:101B30006D9341505040E0F70895991B79E004C03F
:101B4000991F961708F0961B881F7A95C9F78095FC
:101B50000895AA1BBB1B51E107C0AA1FBB1FA617F4
:101B6000B70710F0A61BB70B881F991F5A95A9F746
:101B700080959095BC01CD010895A1E21A2EAA1B73
:101B8000BB1BFD010DC0AA1FBB1FEE1FFF1FA2172D
:101B9000B307E407F50720F0A21BB30BE40BF50B2A
:101BA000661F771F881F991F1A9469F760957095B3
:101BB000809590959B01AC01BD01CF010895FFCFA9
:101BC000010101FF01010A0000000201030164009C
:061BD000009C0320000050
:00000001FF
