:1000000012C065C52BC02AC0C7C5D3C427C026C02F
:10001000BFC4FEC323C002C321C0CFC21FC01EC0C5
:1000200028C669C51BC011241FBECFE5D4E0DEBFC2
:10003000CDBF10E0A0E6B0E0EEEDF1E102C005902A
:100040000D92A037B107D9F713E0A0E7B0E001C0E7
:100050001D92A339B107E1F738D1BFC8D1CF2091A4
:10006000700080916400821710F4AB9A282F809161
:100070007200909173008338910560F01BBC1ABC2C
:1000800019BC18BC13BCAB9A019790937300809372
:1000900072000895822F90E0880F991F9BBD8ABD42
:1000A00099BD88BD23BD089582E08FBD81E485BDE3
:1000B00085B3817F85BB89E08EBD089592B7980F87
:1000C00082B7891B87FDFCCF0895809178009091BD
:1000D0007900892B09F04EC080917A00882371F055
:1000E000909186008FEF989FC001112468EC70E01A
:1000F000CDD6709385006093840043C080919100B9
:10010000882359F120918E0030918F0041E02D32EB
:10011000340730F4293C310540F42B30310538F4F4
:1001200010928500109284002BC028EC30E08CEFF8
:1001300090E0AC01249FC001259F900D349F900D4D
:100140001124885D994064EB70E0A0D66D5F7F4F0D
:10015000709385006093840013C080918400909117
:100160008500009729F00197909385008093840083
:10017000AB9A07C080918803809384001092850019
:10018000AB9880918400909185008F3F910539F064
:1001900030F08FEF90E09093850080938400809101
:1001A0008400089580917200909173009093780379
:1001B00080937703809175008093790310927A037E
:1001C000809182009091830090937C0380937B03C5
:1001D00080918E0090918F0090937E0380937D0399
:1001E00008959F92AF92BF92CF92DF92EF92FF92CB
:1001F0000F931F93982E10929900439885E090E0FA
:1002000090937100809370002ADFD0D488EC90E046
:100210005DD390927000109271004CE2A42E41E0E8
:10022000B42EC12CD12CEE24FF24870180916600CE
:10023000882311F4CCD101C0BCD282B78C59982F3D
:1002400082B7891B87FDFCCF0894E11CF11C011DBE
:10025000111DEA14FB040C051D0540F3C601B50190
:100260002FE030E040E050E025D6209530954095D5
:100270005095A20EB31EC41ED51E89E1A816B10466
:10028000C104D104C0F092D4809197008F5F809315
:1002900097008091970066E0EDD59093970031D359
:1002A0009092700010927100DADE449BBCCF82B352
:1002B000805882BBB8CF1F910F91FF90EF90DF90D5
:1002C000CF90BF90AF909F9008953F924F925F92D2
:1002D0006F927F928F929F92AF92BF92CF92DF9256
:1002E000EF92FF920F931F93CF93DF9388E084BB2D
:1002F00085BB8AEB81BB80E882BB8EE087BB81E354
:1003000088BB71D2C6D27894C0E0D0E004C0C430BB
:10031000D10509F4979A86E990E0D8D297988AEFA8
:1003200090E0D4D22196C530D1058CF384EF91E0D2
:10033000CDD259D282E08FBD81E485BD85B3817F66
:1003400085BB89E08EBD80E5D1D315D385E690E0ED
:10035000A9D286E690E0A6D287E690E0A3D2EC018F
:100360008EEF90E09FD24C018DEE93E09BD27C010A
:100370008EEE93E097D25C01CE019ED28823E1F30A
:10038000979A109271001092700069DE88E080BF29
:1003900081E087B98AE090E085D2EC0181E090E0CD
:1003A00090937A038093790310928F0010928E00BD
:1003B00010E0DD24D394A2E03A2EF1E4CF2EE1E068
:1003C0004E2E512C7AE0672E712C01C0102F7DDE4D
:1003D000809370001092710000919700011751F006
:1003E000109263001092620082E390E05BD2EC0115
:1003F000009197008091700090917100892BB1F469
:1004000010927F0010926200C70156D28823B9F083
:10041000109299004398D092630082B3877C82BB8C
:100420003FBCC5BC85B3817F85BB09C0809163009B
:10043000882311F0D0927F008CED95E033D280912B
:100440006300882321F0109271001092700007DE83
:10045000809162008F5F80936200815009F0B6CF77
:10046000809163008111979AC40126D2882339F1C3
:1004700082E390E017D24C0180917500482F50E044
:1004800020917200309173004217530710F48F5F70
:1004900004C02417350718F48150809375008091AB
:1004A000750090916400823428F09150909364001C
:1004B000AB9A05C09F3F19F09F5F90936400C701FE
:1004C000FBD1882301F18AE090E0ECD17C012091FE
:1004D000800030918100C901880F991F820F931FFE
:1004E000880F991F66E070E0D1D470938300609309
:1004F00082001092810010928000809191008823E8
:1005000011F4D0926500C501D7D1882321F08CED7C
:1005100095E0C8D15C01CE01CFD1882331F0809124
:10052000820090918300892B29F080917F0088239D
:1005300009F44CCFD092630010929900439884E65E
:1005400090E0B0D1EC0180917F00882309F43ECF88
:10055000AB9810927F008AE044DE979A1092630075
:100560008091970081508093970050927100409243
:10057000700075DD88B18C7F88B9D092990088B100
:100580008A6088B984E690E08DD1EC01CE0194D1E7
:100590008823E1F3709271006092700060DD88EC56
:1005A00090E080D1EC01CE0187D18823E1F388EE81
:1005B00093E078D1EC0107E009CF1F920F920FB6BC
:1005C0000F9211240F900FBE0F901F9018955E9BF5
:1005D00024C0809166008823E1F480918900909185
:1005E0008A00019690938A0080938900FC01E55669
:1005F000FD4FE081ED3019F08436910539F4109209
:100600008A001092890081E080936600589AECB9C4
:10061000089510928A001092890008951F920F92F7
:100620000FB60F9211248F938CB180938700809125
:100630008700853F19F41092670014C0809167000D
:100640008F5F80936700843041F4809187008093AE
:10065000860088EC80937A0005C0853618F084E621
:10066000809367008F910F900FBE0F901F90189589
:10067000DC0120E030E040E050E008C0FA01E5563F
:10068000FD4F8081280F311D4F5F5F4F4A175B0779
:10069000A8F33F70C90136E0969587953A95E1F742
:1006A000835CFD01E556FD4F808311962F73235C1B
:1006B000FD01E556FD4F2083A456BD4F8DE08C9380
:1006C0001092660080919B028CB90895CF93DF93BE
:1006D000EA01B22F93E290939B0260939C02809375
:1006E0009D02A0E063E070E04EC0FE01EA0FF11D44
:1006F0009081AF5FB15019F430E040E00FC0FE01CF
:10070000EA0FF11D4081AF5FB15011F430E006C037
:10071000FE01EA0FF11D3081AF5FB150892F869540
:100720008695835CFB01E556FD4F8083242F22953F
:100730002F70892F90E08370907054E0880F991F7C
:100740005A95E1F7282B235CFB01E456FD4F2083EB
:10075000842F90E08F709070880F991F880F991FD9
:10076000232F2295269526952370282B235CFB01A9
:10077000E356FD4F20833F73335CFB01E256FD4F90
:1007800030836C5F7F4FBB2309F0AFCFCB0170DFAD
:10079000DF91CF9108951F93182F8A3011F48DE0C7
:1007A000FADF5D9BFECF1CB980E090E01F910895B9
:1007B00008958091FF02909100037ED0882391F0EC
:1007C00080916600882371F084E460919A0245E686
:1007D00053E022E27BDF82E390E064D09093000359
:1007E0008093FF02089588E18AB9599A579A89E15E
:1007F00089B98BEC93E060E070E07ED388EC90E008
:1008000051D0909300038093FF028AE28CB908953F
:100810001F920F920FB60F9211248F939F93809186
:1008200087038F5F8093870380918D008150809331
:100830008D008F5F39F583E080938D0080918B0070
:1008400090918C00019690938C0080938B00809106
:10085000780090917900009729F0019790937900A2
:100860008093780080919100882329F080919100F5
:1008700081508093910080917A00882319F08150F3
:1008800080937A009F918F910F900FBE0F901F90D1
:10089000189582E083BF89B7816089BF89B780647A
:1008A00089BF089520918B0030918C0021503040F9
:1008B000280F391FC901089520918B0030918C00B9
:1008C000821B930B80709078892F089520918B0064
:1008D00030918C0021503040280F391F80918B00BF
:1008E00090918C00A901481B590BCA018070907827
:1008F0009923A1F3089586EA86B987E087B9369AE5
:10090000089527B196E097B910BE83ED86B9349A61
:1009100097B9369A349BFECF27B944B155B1440FED
:10092000551F440F551F493C510510F048EC50E04D
:1009300080917200909173009C0163E0220F331F3D
:100940006A95E1F7281B390B240F351F83E0369594
:1009500027958A95E1F73093730020937200809178
:10096000740090E08217930710F42093740016B877
:1009700088E080BF08958EB5806C8EBD8EB5806492
:100980008EBD89B7806289BF89B7846089BF0895A9
:100990001F920F920FB60F9211248F9380919000A7
:1009A0008F5F809390008F910F900FBE0F901F90DC
:1009B00018951F920F920FB60F9211242F933F9309
:1009C0004F935F938F939F930EB406FE0FC01092C8
:1009D000900086B597B590939500809394008EB55E
:1009E0008F7B8EBD84E68093910066C08EB5806457
:1009F0008EBD26B537B540919000809194009091BE
:100A00009500281B390B942F990F80E0280F391F70
:100A100085E0369527958A95E1F7309393002093EA
:100A200092002851314030F488E191E09093930096
:100A30008093920040919200509193004851514010
:100A400080918E0090918F008417950730F48091EB
:100A50008E0090918F0001960CC080918E00909135
:100A60008F004817590748F480918E0090918F00AD
:100A7000019790938F0080938E0080918E009091CB
:100A80008F009C01220F331F220F331F220F331FB1
:100A9000281B390B240F351F83E0369527958A953F
:100AA000E1F7309393002093920030938F002093CE
:100AB0008E0081E0809365009F918F915F914F91AF
:100AC0003F912F910F900FBE0F901F9018951F927E
:100AD0000F920FB60F9211248F938AB78F7B8ABF24
:100AE0008F910F900FBE0F901F901895885F82B95D
:100AF00085EC86BF08951F920F920FB60F921124B6
:100B00008F939F9381B190E0887F9070803891059A
:100B1000C9F08138910534F4009791F18036910540
:100B200091F50AC0883B9105B9F0883F910529F1FC
:100B3000883A910541F510C086B7806886BF10924B
:100B4000960023C083B18093880384EF91E0909353
:100B50007900809378000EC080919600882339F444
:100B60008091750083B981E08093960003C08091E5
:100B7000640083B986B7806807C086B7806986BF7E
:100B800086B7806986BF85EC86BF9F918F910F9055
:100B90000FBE0F901F9018951F920F920FB60F92D5
:100BA00011240F900FBE0F901F90189590919700F1
:100BB000923041F1933030F4992361F0913009F093
:100BC00057C014C09430C1F1943040F1953009F011
:100BD0004FC042C082EA8FBD81E685BD88E087BBF9
:100BE00082B3877D82BB949A82E031C082EA8FBD56
:100BF00081E685BD88E087BB82B3877E82BB959AFC
:100C000097B918C082EA8FBD81E485BD8CE087BBAF
:100C100082B3877E82BB959A17B81AC082EA8FBDCD
:100C200081E485BD8CE087BB82B38F7C82BB939AC5
:100C300082E087B94098089582EA8FBD81E485BD3E
:100C40008AE087BB82B38F7C82BB939A81E087B9AD
:100C500088B1836088B9089582EA8FBD81E485BD3B
:100C60008AE087BB82B3877D82BB949A17B840988D
:100C700008951F920F920FB60F9211249F92AF9278
:100C8000BF92CF92DF92EF92FF920F931F932F9319
:100C90003F934F935F936F937F938F939F93AF9304
:100CA000BF93EF93FF9302EAE1E4EE2E7AE0A72EE2
:100CB000FF24F3946CE0B62E51E6C52E48E0D42E06
:100CC00032E0932E88B190E025E0969587952A959D
:100CD000E1F7182F117090919700923009F44DC0F0
:100CE000933030F4992371F0913009F09DC020C009
:100CF000943009F46BC0943008F454C0953009F076
:100D000093C07AC00FBDC5BCD7BA112361F082B3BE
:100D1000877E82BB959AF4BC809165008111F1DDDC
:100D20004098F7B817C082B3877D82BB949A7CC085
:100D300082B3877E82BB959A1123D9F40FBDE5BC9F
:100D4000B7BA94BD809165008111DBDD17B888B119
:100D5000836088B9809197008F5F8093970080911E
:100D60008000909181000196909381008093800093
:100D70005BC00FBDC5BCD7BA57C00FBDE5BCB7BA85
:100D8000112359F082B38F7C82BB939AF4BC80917B
:100D900065008111B6DD97B828C082B3877E82BB1B
:100DA000959A42C082B38F7C82BB939A112351F4EF
:100DB0000FBDE5BCA7BAF4BC809165008111A1DD2F
:100DC000F7B8C5CF0FBDE5BCB7BA2EC00FBDE5BCA7
:100DD000A7BA112361F082B3877D82BB949AF4BCD9
:100DE0008091650081118DDD17B84098B3CF82B333
:100DF0008F7C82BB939A18C082B3877D82BB949A02
:100E0000112379F40FBDC5BCD7BAF4BC809165003D
:100E1000811177DD97B888B1836088B91092970007
:100E20009ECF0FBDE5BCA7BA459903C0112309F0B9
:100E300049CF459B03C0112309F444CF10926500AC
:100E4000FF91EF91BF91AF919F918F917F916F91A2
:100E50005F914F913F912F911F910F91FF90EF90D4
:100E6000DF90CF90BF90AF909F900F900FBE0F90EC
:100E70001F901895991B79E004C0991F961708F0E8
:100E8000961B881F7A95C9F780950895AA1BBB1BEE
:100E900051E107C0AA1FBB1FA617B70710F0A61B7A
:100EA000B70B881F991F5A95A9F780959095BC019B
:100EB000CD010895A1E21A2EAA1BBB1BFD010DC096
:100EC000AA1FBB1FEE1FFF1FA217B307E407F507FA
:100ED00020F0A21BB30BE40BF50B661F771F881FD6
:100EE000991F1A9469F760957095809590959B016C
:100EF000AC01BD01CF0108950F931F93CF93DF93F2
:100F00008C01EB01009731F46115710519F420E0B3
:100F100030E037C081E090E06EE070E038D0FC0156
:100F20009C01009771F180E88383209771F0D3874B
:100F3000C28781E883838091890390918A03892BFA
:100F400021F4F0938A03E093890301151105C9F098
:100F50001187008783818260838380918B039091C6
:100F60008C03892B71F4F0938C03E0938B038091B5
:100F70008D0390918E03892B21F4F0938E03E093DF
:100F80008D03C901DF91CF911F910F9108950F93A8
:100F90001F93CF93DF93689F8001699F100D789F07
:100FA000100D1124C8010DD0EC01009721F060E074
:100FB00070E0A8010BD1CE01DF91CF911F910F916D
:100FC0000895CF93DF93BC018230910510F462E065
:100FD00070E0A0919103B0919203ED01E0E0F0E0A8
:100FE00040E050E021C0888199818617970769F415
:100FF0008A819B81309719F09383828304C09093F8
:10100000920380939103FE0134C06817790738F486
:101010004115510519F08417950708F4AC01FE013C
:101020008A819B819C01E9012097E9F641155105D0
:10103000A9F1CA01861B970B049708F4BA01E0E0F6
:10104000F0E02AC08D919C91119784179507F9F4CF
:101050006417750781F412968D919C9113973097C0
:1010600019F09383828304C0909392038093910339
:10107000FD0132964FC0CA01861B970BFD01E80F98
:10108000F91F6193719302978D939C9343C0FD0167
:10109000828193819C01D9011097A1F680918F03E1
:1010A00090919003892B41F480916B0090916C009A
:1010B0009093900380938F0340916D0050916E0048
:1010C0004115510541F44DB75EB78091690090918B
:1010D0006A00481B590B20918F033091900324170D
:1010E0003507B0F4CA01821B930B8617970780F06F
:1010F000AB014E5F5F4F8417950750F0420F531FAF
:101100005093900340938F03F9016193719302C050
:10111000E0E0F0E0CF01DF91CF910895CF93DF932E
:10112000009709F450C0EC0122971B821A82A0910B
:101130009103B0919203109709F140E050E0AC1791
:10114000BD0708F1BB83AA83FE0121913191E20F13
:10115000F31FAE17BF0779F48D919C911197280F5B
:10116000391F2E5F3F4F3983288312968D919C91B2
:1011700013979B838A834115510571F4D093920391
:10118000C093910320C012968D919C911397AD014D
:10119000009711F0DC01D3CFFA01D383C2832191F0
:1011A0003191E20FF31FCE17DF0769F4888199812F
:1011B000280F391F2E5F3F4FFA01318320838A8128
:1011C0009B8193838283DF91CF910895DC0101C0DD
:0E11D0006D9341505040E0F70895F894FFCF22
:1011DE000A000101FF010164642000930300000076
:00000001FF
