:101C000011241FBECFE5D4E0DEBFCDBF10E0A0E6BB
:101C1000B0E0E0E3FFE102C005900D92A036B1070D
:101C2000D9F710E0A0E6B0E001C01D92A23AB107DA
:101C3000E1F714C000C008955D9BFECF8CB90895F4
:101C40005F9BFECF8CB1992708958DE4F5DF8BE47F
:101C5000F3DF82E4F1DF8CE4EFDF0895CFE5D4E039
:101C6000DEBFCDBFE0E0F0E004917F01992481B7B1
:101C7000885081BF90BC80E189B9599A88E18AB9BE
:101C800086E880BDEF01192D5F9B0BC0113029F450
:101C90008CB18A3A49F110E004C08CB18B3109F45F
:101CA00011E0CE01219684369105C8F00F3F41F036
:101CB000002331F0E0916000F091610009950FC0C0
:101CC0008AE0BADF8DE0B8DF86E5B6DF80E3B4DF17
:101CD0008EE2B2DF82E3B0DF8AE3AEDF05C080E2EE
:101CE0009EE40197F1F7D0CFB0DFAADF813611F47F
:101CF00089E51CC1813461F4A3DFE82EFF24FE2CAA
:101D0000EE249EDF9927E82AF92AF694E794E1C0A9
:101D1000823631F489E590DF80E08EDF80E406C111
:101D2000823409F070C08CDF8BDFD82E89DF082F5A
:101D3000B2E6AB2EB0E0BB2E10E0E5010894A11C8A
:101D4000B11C1D1510F47CDF01C08FEF88831F5F6D
:101D5000103498F336E7931609F0C9C0063409F039
:101D60003CC08FEFE8168BE1F80608F033C0CD2DAC
:101D7000A70166277727440F551F661F771F6A0143
:101D80007B01A2E6B0E011E08D9199272D913327D8
:101D9000322F2227822B932B0C01FA01109357002C
:101DA000E89511244E5F5F4F6F4F7F4FC25061F730
:101DB00085E0F60180935700E89507B600FCFDCF5B
:101DC00081E180935700E8957695679557954795FB
:101DD0007A017FC080E030DF7CC0053409F079C033
:101DE000F7012D2DA2E6B0E0EEBB8F2F99278FBB18
:101DF0008D918DBB3196E29AE19AE199FECF215007
:101E000099F77F0166C08736B9F51ADF19DFC82F49
:101E100017DF863409F5C701AA27BB276C017D01AE
:101E2000CC0CDD1CEE1CFF1CF60105911491802FDB
:101E300003DF812F992700DF82E090E0A0E0B0E08F
:101E4000C80ED91EEA1EFB1EC25071F7F694E79425
:101E5000D794C794760149CF853409F046CFEEBABE
:101E60008F2D99278FBBE09A0894E11CF11C8DB34C
:101E7000E3DEC150A1F739CF853601F596E7991613
:101E800041F580E090E0A0E0B0E023E0FC01209389
:101E90005700E89507B600FCFDCF805C9F4FAF4F21
:101EA000BF4F8F3F3BE1930730E0A30730E0B3071C
:101EB00068F381E180935700E8950BC0853459F4AD
:101EC00088E190E02CE00FB6F894A89581BD0FBE94
:101ED00021BD8DE02BC08035E1F38C34D1F3803708
:101EE00011F483E523C0843721F486E7A5DE80E082
:101EF0001DC0843519F4A4DE982EEBCF8B3109F484
:101F0000F3CE8A3A09F4F0CE863521F480E394DEEC
:101F100082E30CC0833731F487E08EDE83E98CDE08
:101F20008EE104C08B3109F4E0CE8FE385DEDDCE97
:0400000300001C00DD
:00000001FF
