:1000000012C0B9C62AC029C022C721C626C025C031
:100010000DC650C522C079C320C0CDC21EC01DC0B0
:1000200020C7C0C61AC011241FBECFE5D4E0DEBF72
:10003000CDBF10E0A0E6B0E0E6E7F4E102C0059035
:100040000D92A037B107D9F713E0A0E7B0E001C0E7
:100050001D92AF39B107E1F736C1D2CF20918300AD
:1000600080916200821710F4282FAB9A8091810052
:1000700090918200893C910560F01BBC1ABC19BCB0
:1000800018BC13BCAB9A01979093820080938100B7
:100090000895822F9927880F991F9BBD8ABD99BD0E
:1000A00088BD23BD089582E08FBD81E485BD85B301
:1000B000817F85BB89E08EBD089592B7980F82B786
:1000C000891B87FDFCCF0895AF92BF92CF92DF923C
:1000D000EF92FF920F931F93CF93DF93182F9CE221
:1000E000A92E91E0B92EC12CD12C1092A3004398D7
:1000F00085E090E09093840080938300AFDFB6D7D3
:1001000088EC90E039D5C12FDD27D0938400C093CF
:100110008300EE24FF248701EA14FB040C051D056F
:1001200078F480916700882311F44FD201C0A8D4DD
:1001300084E6C3DF0894E11CF11C011D111DECCF06
:10014000C601B5012FE030E040E050E072D9A21ABC
:10015000B30AC40AD50A0894A108B108C108D10895
:1001600089E1A816B104C104D10428F489E1A82EBC
:10017000B12CC12CD12C7AD78091A5008F5F8093B0
:10018000A5008091A50066E034D99093A50005D51F
:10019000D0938400C093830061DF449BBACF82B3C5
:1001A00090E8892782BBB5CF80917B0090917C003D
:1001B000892B09F04EC04091790050917A00411589
:1001C000510571F090918E008FEF989FC00111241E
:1001D00068EC70E01AD9709386006093850041C086
:1001E00080919A00882341F120919C0030919D00DC
:1001F00081E02D32380708F09A01293C310510F0D2
:1002000028EC30E02B30310528F4509386004093E1
:10021000850026C08CEF90E0289FA001299F500DFB
:10022000389F500D1124CA01885D994064EB70E03D
:10023000ECD8CB01039610C0809185009091860088
:10024000009729F001979093860080938500AB9AE0
:1002500008C080919403992790938600809385002D
:10026000AB9880918500909186008F3F910539F081
:1002700030F08FEF90E0909386008093850080911E
:100280008500992708958091810090918200909334
:1002900084038093830380917F0099279093860342
:1002A00080938503809170009091710090938803F2
:1002B0008093870380919C0090919D0090938A0386
:1002C000809389030895CFE5D4E0DEBFCDBF00E081
:1002D00088E084BB85BB8AEB81BB80E882BB8EE073
:1002E00087BB81E388BB88B3806C88BBB69B06C0A4
:1002F000B79B02C081E007C082E005C0B79B02C087
:1003000083E001C084E08093600087D318D47894A0
:10031000C0E0D0E0809160009927C817D90709F4A0
:10032000979A86E990E028D497988AEF90E024D4B1
:100330002196C530D10574F384EF91E01DD4B3DE6E
:1003400080E528D566D485E690E002D486E690E084
:10035000FFD387E690E0FCD3EC018EEF90E0F8D37A
:100360005C018DEE93E0F4D37C018EEE93E0F0D34C
:100370006C01CE01F6D38823E1F3979A10928400A2
:10038000109283006BDE88E080BF11E017B98AE02D
:1003900090E0DED3EC0181E090E0909386038093BF
:1003A000850310929D0010929C00812F8DDEFCDE53
:1003B000992790938400809383008091A5008017F3
:1003C00051F0109263001092640082E390E0C0D379
:1003D000EC010091A5008091830090918400892B0D
:1003E000C9F41092740010926400C401BAD3882337
:1003F000E1F01092A300439881E08093630082B300
:10040000877C82BB82E08FBD81E485BD85B3817F1F
:1004100085BB0BC080916300882319F081E0809335
:1004200074008CED95E094D34C0180916300882397
:1004300021F0109284001092830010DE80916400FD
:100440008F5F80936400813009F0B1CF80916300A9
:100450008111979AC50185D3882339F182E390E011
:1004600077D35C0180917F00482F55272091810030
:10047000309182004217530710F48F5F04C0241795
:10048000350718F4815080937F0080917F00909110
:100490006200893728F0915090936200AB9A05C0B2
:1004A0009F3F19F09F5F90936200C7015AD3882342
:1004B00019F18AE090E04CD37C01209172003091D8
:1004C0007300C901880F991F880F991F820F931F0E
:1004D000820F931F66E070E098D77093710060936D
:1004E0007000109273001092720080919A0088231D
:1004F00019F481E080936100C60133D3882321F091
:100500008CED95E025D36C01CE012BD3882331F0FF
:100510008091700090917100892B29F08091740076
:10052000882309F444CF11E0109363001092A300D4
:10053000439884E690E00CD3EC018091740088230A
:1005400009F435CFAB98109274008AE0BDDD979A1C
:10055000109263008091A50081508093A50081E0F6
:1005600090E0909384008093830078DD88B18C7F45
:1005700088B91093A30088B18A6088B984E690E0B6
:10058000E7D2EC01CE01EDD28823E1F38AE090E0DE
:10059000909384008093830061DD88EC90E0D8D252
:1005A000EC01CE01DED28823E1F382E390E0D0D2E9
:1005B0007C0107E0FCCE1F920F920FB60F92112420
:1005C0000F900FBE0F901F9018955E9B24C08091D6
:1005D00067008823E1F480918F009091900001964C
:1005E0009093900080938F00FC01E955FD4FE081CE
:1005F000ED3019F08436910539F410929000109284
:100600008F0081E080936700589AECB908951092AA
:10061000900010928F0008951F93CF93DF93EC0109
:1006200010E0662309F460C0A22FBB271297E42FC5
:10063000FF27E35FFC4F30813D534F5FE42FFF27DF
:10064000E35FFC4F50815D534F5FE42FFF27E35F73
:10065000FC4F70817D534F5FE42FFF27E35FFC4F1A
:10066000E081ED534F5F842F9927A817B907E4F174
:10067000832F9927880F991F880F991F352F32953F
:100680003F70382B852F99278F70907054E0880F1A
:10069000991F5A95E1F7572F56955695582B872F46
:1006A00099278370907026E0880F991F2A95E1F7AB
:1006B0008E2B61506F3FC1F0FE01E10FF11D3083C1
:1006C0001F5F61506F3F81F0FE01E10FF11D50830C
:1006D0001F5F61506F3F41F0FE01E10FF11D80830C
:1006E0001F5F662309F0A3CFDF91CF911F9108957B
:1006F000CF93C82F8A3011F48DE0FADF5D9BFECFD7
:10070000CCB980E090E0CF9108951F920F920FB680
:100710000F9211242F933F934F935F936F937F9387
:100720008F939F93AF93BF93CF93DF93EF93FF93F9
:100730008CB180938D0040919500443610F010925A
:10074000960050918D005D3009F064C08091960054
:10075000823009F05FC010929600A42FBB27A35FE0
:10076000BC4FFD0132978081209191003091920021
:10077000281B3109ED0121978881281B3109C90106
:100780009F70909392008093910066E09695879574
:100790006A95E1F7982F935C909393002F733070D4
:1007A000235C209394008081981709F082C088818F
:1007B000281709F07EC0409387005C9380910F0357
:1007C000823549F488E190E02CE00FB6F894A895C2
:1007D00081BD0FBE21BD80910F038ADF80910F0381
:1007E000843709F066C02091870043E064E088E820
:1007F00090E012DF80916000E82FFF27E957FF4F5C
:10080000808180938E0084EF91E090937A008093B2
:1008100079004FC020919600822F99278130910551
:10082000F9F0823091051CF4892B21F040C0029729
:1008300011F13DC080918D00833239F480918C009C
:10084000882319F481E08093960080918D00809335
:100850000D0381E08093950080918D00992722C03F
:100860002F5F20939600E42FFF27E35FFC4F8091DA
:100870008D00808309C0E42FFF27E35FFC4F809148
:100880008D008083443620F44F5F4093950002C072
:100890001092960020918D0080919100909192008D
:1008A000820F911D909392008093910002C010924C
:1008B0009600FF91EF91DF91CF91BF91AF919F9102
:1008C0008F917F916F915F914F913F912F910F90F9
:1008D0000FBE0F901F901895AC01A0E0B0E09D01F5
:1008E000A817B90748F4E7EAF2E08191280F311D13
:1008F0001196A417B507C8F33F70FD01E955FD4FE8
:10090000C90176E0969587957A95E1F7835C8083B7
:100910001196FD01E955FD4F2F733070822F835CD6
:100920008083A855BD4F8DE08C9310926700809115
:10093000A7028CB908951F93CF93DF93382FEA0154
:10094000722F10E083E28093A7026093A802309395
:10095000A902A3E0B0E0772309F458C0772311F48B
:10096000972F07C0FE01E10FF11D1F5F90817150AD
:1009700011F4472F0EC0FE01E10FF11D1F5F4081F2
:10098000715039F0FE01E10FF11D1F5F6081715060
:1009900001C0672FFD01E955FD4F892F869586958A
:1009A000835C80831196FD01E955FD4F892F9927BE
:1009B0008370907024E0880F991F2A95E1F75527DE
:1009C0009A0194E0369527959A95E1F7822B835CFE
:1009D00080831196FD01E955FD4F4F705070440F13
:1009E000551F440F551F862F992726E0969587950A
:1009F0002A95E1F7842B835C80831196FD01E955EC
:100A0000FD4F6F73635C60831196A5CFCD0164DFEA
:100A1000DF91CF911F910895089588E18AB9599A7D
:100A2000579A80E189B960E070E088E793E084D369
:100A300088EC90E08DD090930C0380930B038AE0B8
:100A400057DE82E455DE8CE453DE8AE351DE86E530
:100A50004FDE80E34DDE8EE24BDE83E349DE82E350
:100A600047DE8AE045DE81E443DE84E441DE82E560
:100A70003FDE8AE33DDE80916000805D39DE0895CF
:100A800080910B0390910C036CD0882391F080919E
:100A90006700882371F022E241E753E06091A602EB
:100AA00084E449DF82E390E053D090930C03809379
:100AB0000B0308951F920F920FB60F9211248F937C
:100AC0009F93809193038F5F80939303809199000C
:100AD0008150809399008F3F59F583E0809399006E
:100AE0008091970090919800019690939800809340
:100AF000970080917B0090917C00009729F00197EE
:100B000090937C0080937B0080919A00882329F049
:100B100080919A00815080939A0080917900909101
:100B20007A00009729F0019790937A0080937900DA
:100B30009F918F910F900FBE0F901F90189582E09C
:100B400083BF89B7816089BF89B7806489BF0895F1
:100B50002091970030919800280F391FC901019703
:100B600008952091970030919800821B930B892F54
:100B70009927807899270895CF93DF93E9DFEC01D7
:100B8000CE01EFDF8823E1F3DF91CF91089586EA6C
:100B900086B987E087B9369A089527B196E097B964
:100BA00010BE83ED86B9349A97B9369A349BFECF3E
:100BB00027B944B155B1440F551F440F551F493C47
:100BC000510510F048EC50E02091810030918200F6
:100BD000C90163E0880F991F6A95E1F7821B930BA7
:100BE000840F951F23E0969587952A95E1F79093BA
:100BF00082008093810020918000332728173907D5
:100C000020F4809181008093800016B888E080BF36
:100C100008958EB5806C8EBD8EB580648EBD89B70B
:100C2000806289BF89B7846089BF08951F920F923F
:100C30000FB60F9211248F9380919B008F5F80934A
:100C40009B008F910F900FBE0F901F9018951F92D1
:100C50000F920FB60F9211242F933F938F939F9370
:100C60000EB406FE0FC010929B0086B597B5909308
:100C70009F0080939E008EB58F7B8EBD84E680930F
:100C80009A0070C08EB580648EBD26B537B5809150
:100C90009E0090919F00281B390B80919B00992703
:100CA000982F8827990F280F391F689414F83695C4
:100CB00027951694E1F73093A1002093A0002851C6
:100CC000314030F488E191E09093A1008093A0003E
:100CD0002091A0003091A100285131403093A10013
:100CE0002093A00080919C0090919D008217930713
:100CF00030F480919C0090919D0001960CC08091F1
:100D00009C0090919D002817390748F480919C0021
:100D100090919D00019790939D0080939C0020915D
:100D20009C0030919D00C901880F991F880F991F61
:100D3000880F991F821B930B2091A0003091A10076
:100D4000820F931F23E0969587952A95E1F790935C
:100D5000A1008093A00090939D0080939C0081E06F
:100D6000809361009F918F913F912F910F900FBEC3
:100D70000F901F9018951F920F920FB60F9211248B
:100D80008F938AB78F7B8ABF8F910F900FBE0F9082
:100D90001F90189590916000990F980F92B985EC6B
:100DA00086BF08951F920F920FB60F9211248F9352
:100DB0009F9381B19927887F907080389105E9F0E1
:100DC0008138910534F40097B1F18036910579F0BE
:100DD00035C0883B9105D9F0893B910524F4883AC8
:100DE0009105A9F02BC0883F910511F127C086B766
:100DF000806886BF1092A20023C083B180939403C1
:100E000084EF91E090937C0080937B000EC09091E2
:100E1000A200992339F480917F0083B99F5F90935A
:100E2000A20003C08091620083B986B7806807C0C2
:100E300086B7806986BF86B7806986BF85EC86BF26
:100E40009F918F910F900FBE0F901F9018951F923A
:100E50000F920FB60F9211240F900FBE0F901F909C
:100E600018951F920F920FB60F9211241F932F9374
:100E70003F934F935F936F937F938F939F93AF9322
:100E8000BF93CF93EF93FF93459B02C011E001C046
:100E900010E08091A50099278230910509F450C097
:100EA000833091052CF4009779F0019739F1BFC098
:100EB0008430910509F478C0843091050CF45AC04F
:100EC000059709F48BC0B3C082EA8FBD81E685BD6A
:100ED00088E087BB112369F082B3877E82BB959A35
:100EE000C1E0C4BD80916100811157DE4098C7B94F
:100EF0001BC082B3877D82BB949A99C082B3877EE0
:100F000082BB959A1123B1F482EA8FBD81E485BD3D
:100F10008CE087BB81E084BD8091610081113DDE62
:100F200017B988B1836088B98091A5008F5F8093DD
:100F3000A5006DC082EA8FBD81E685BD88E076C0E0
:100F400082EA8FBD81E485BD8CE087BB112369F007
:100F500082B38F7C82BB939A81E084BD80916100D3
:100F600081111BDE82E087B932C082B3877E82BBEB
:100F7000959A5DC082B38F7C82BB939A112371F4E2
:100F800082EA8FBD81E485BD8AE087BBC1E0C4BD34
:100F900080916100811101DEC7B9C3CF82EA8FBDA4
:100FA00081E485BD8CE042C082EA8FBD81E485BDCD
:100FB0008AE087BB112369F082B3877D82BB949A54
:100FC00081E084BD809161008111E7DD17B8409810
:100FD000ABCF82B38F7C82BB939A29C082B3877DCB
:100FE00082BB949A1123E9F482EA8FBD81E685BD24
:100FF00088E087BB81E084BD809161008111CDDDF7
:1010000082E087B988B1836088B91093A500809188
:101010007200909173000196909373008093720018
:1010200006C082EA8FBD81E485BD8AE087BB459911
:1010300003C0112309F028CF459B03C0112309F4F5
:1010400023CF10926100FF91EF91CF91BF91AF91AB
:101050009F918F917F916F915F914F913F912F91D0
:101060001F910F900FBE0F901F9018958091A500B3
:1010700099278230910551F1833091052CF4009726
:1010800069F00197B9F0089584309105E1F1843059
:1010900091055CF1059709F443C0089582EA8FBD7C
:1010A00081E685BD88E087BB82B3877D82BB949A49
:1010B00082E034C082EA8FBD81E685BD88E087BBCF
:1010C00082B3877E82BB959A81E01AC082EA8FBD87
:1010D00081E485BD8CE087BB82B3877E82BB959A15
:1010E00017B888B1836088B9089582EA8FBD81E41A
:1010F00085BD8CE087BB82B38F7C82BB939A82E0F4
:1011000087B94098089582EA8FBD81E485BD8AE061
:1011100087BB82B38F7C82BB939A81E087B9E1CF92
:1011200082EA8FBD81E485BD8AE087BB82B3877D7B
:1011300082BB949A17B8E5CF0F931F93CF93DF9399
:101140008C01EB01009711F4672BB9F16EE070E0B0
:1011500081E090E037D0FC01892B71F180E8838336
:10116000209771F0D387C28781E8838380919503AC
:1011700090919603892B21F4F0939603E0939503C5
:1011800001151105C9F0118700878381826083836F
:101190008091970390919803892B71F4F0939803B1
:1011A000E09397038091990390919A03892B21F4FE
:1011B000F0939A03E0939903CF01DF91CF911F91B0
:1011C0000F9108950F931F93CF93DF93869F800114
:1011D000879F100D969F100D1124C8010DD0EC01B2
:1011E000009721F0A80160E070E0FCD0CE01DF9113
:1011F000CF911F910F910895CF93DF93AC01029788
:1012000010F442E050E020E030E0A0919D03B09166
:101210009E03BD01F901109709F44CC08D919C917A
:1012200011978417950731F14817590738F421159C
:10123000310519F08217930708F49C01FD01A28182
:10124000B381109759F721153105A1F1C901841B0C
:10125000950B049708F4A901DB01E0E0F0E010979A
:1012600049F18D919C91119782179307F9F44217D8
:10127000530779F4ED018A819B81309719F09383AC
:10128000828304C090939E0380939D03CD010296B8
:101290004AC0241B350BFD01E20FF31F419351930C
:1012A000225030402D933C93CF013DC0FD01A281DF
:1012B000B381D5CF80919B0390919C03892B41F4FE
:1012C00080916B0090916C0090939C0380939B03A2
:1012D000E0916900F0916A00309741F4EDB7FEB7F4
:1012E00080916D0090916E00E81BF90BA0919B031B
:1012F000B0919C039F012A1B3B0B2417350788F0F4
:10130000CA0102962817390760F0CD01840F951F96
:10131000029690939C0380939B034D935D93CD0124
:1013200002C080E090E0DF91CF910895CF93DF93EA
:10133000009709F454C0DC011297ED011B821A8258
:1013400080919D0390919E03009721F1FC0140E064
:1013500050E0EA17FB0718F1ED01FB83EA832D91BA
:101360003C911197C20FD31FCE0102968E179F0793
:1013700071F48A819B81280F391F2E5F3F4F119690
:101380003C932E9382819381FD0193838283411547
:10139000510559F4B0939E03A0939D0320C0AF0163
:1013A0000280F381E02D3097A1F6EA01BB83AA8386
:1013B000CA01029628813981820F931F8A179B07E1
:1013C00071F48D919C911197280F391F2E5F3F4F1B
:1013D00039832883FD01828193819B838A83DF91F6
:1013E000CF910895DC0101C06D9341505040E0F76A
:1013F0000895991B79E004C0991F961708F0961B71
:10140000881F7A95C9F780950895AA1BBB1B51E1E7
:1014100007C0AA1FBB1FA617B70710F0A61BB70B64
:10142000881F991F5A95A9F780959095BC01CD0109
:101430000895A1E21A2EAA1BBB1BFD010DC0AA1F15
:10144000BB1FEE1FFF1FA217B307E407F50720F02D
:10145000A21BB30BE40BF50B661F771F881F991FA8
:101460001A9469F760957095809590959B01AC01F1
:06147000BD01CF0108954B
:101476000101FF01010A00016400009F0320000032
:00000001FF
