:1000000012C02CC02BC02AC0CFC128C027C026C018
:1000100025C072C123C022C021C020C01FC01EC085
:10002000CDC11CC01BC011241FBECFE5D4E0DEBF74
:10003000CDBF10E0A0E6B0E0E2EAF6E002C0059035
:100040000D92A436B107D9F710E0A4E6B0E001C0E4
:100050001D92A137B107E1F793D021C3D1CF2091F1
:100060006400822F90E0880F991F9BBD8ABD99BDC7
:1000700088BD23BD089582E08FBD81E485BD85B331
:10008000887F85BB89E08EBD089592B7980F82B7AF
:10009000891B87FDFCCF0895DF92EF92FF920F93AB
:1000A0001F93CF93DF93D82E10926F00439885E073
:1000B00090E090936500809364008AE090E09BBD9F
:1000C0008ABD99BD88BD85E083BD48D288EC90E0AB
:1000D00056D1D092640010926500CD2DD0E0CC0FA7
:1000E000DD1F4CE2E42E41E0F42E012D112D20E025
:1000F00030E040E050E00BC082B78C59982F82B7B7
:10010000891B87FDFCCF2F5F3F4F4F4F5F4F2E1551
:100110003F054007510780F3C801B7012FE030E0E9
:1001200040E050E08AD22095309540955095E20EFF
:10013000F31E041F151F89E1E816F10401051105DE
:10014000B8F00CD280916D008F5F80936D0080912C
:100150006D0066E066D290936D00D09264001092BC
:100160006500DBBDCABDD9BDC8BDD3BC88B1BFCF9A
:10017000DF91CF911F910F91FF90EF90DF90089545
:100180002F923F924F925F926F927F928F929F92A7
:10019000AF92BF92CF92DF92EF92FF920F931F9395
:1001A000CF93DF9388E084BB8AEB81BB80E882BB7E
:1001B0008EE087BB8BE981BFC5D0789482E08FBD8C
:1001C00081E485BD85B3887F85BB89E08EBD88E0ED
:1001D00080BF81E087B98AE090E0BDD0EC0184EF78
:1001E00091E0CDD010E006E9202E312CBCE2AB2E00
:1001F000B1E0BB2EABEA4A2E512CF5E06F2E712CEC
:10020000EAE0CE2ED12C7FE0872E912C6EE1E62EF7
:10021000F12C0FE03092650020926400BBBCAABCB8
:10022000B9BCA8BC86E983BDCE019FD0882339F133
:1002300082E390E090D0EC0180916600909167009D
:1002400090936900809368008730910590F0E19960
:10025000FECF849DB001859D700D949D700D11247D
:10026000812F90E00CD21E5F82B3805882BBAB9886
:1002700002C0AB9A979A1092670010926600809124
:100280006000882321F080916100882339F48091F7
:10029000680090916900892B09F0BCCF89E1FCDEF0
:1002A000109260001092610080916D0081508093E7
:1002B0006D007092650060926400DBBCCABCD9BC62
:1002C000C8BC85E083BD88B18C7F88B981E080930C
:1002D0006F0088B18A6088B984E690E050D090922F
:1002E000650080926400FBBCEABCF9BCE8BC03BDBD
:1002F00088EC90E044D08ECF1F920F920FB60F92F1
:1003000011248F939F93809170008F5F8093700072
:1003100080916C00815080936C008F5F61F483E06A
:1003200080936C0080916A0090916B00019690938D
:100330006B0080936A009F918F910F900FBE0F907A
:100340001F90189582E083BF89B7816089BF89B704
:10035000806489BF089520916A0030916B0021501C
:100360003040280F391FC901089520916A0030914B
:100370006B00821B930B80709078892F08952091D9
:100380006A0030916B0021503040280F391F809156
:100390006A0090916B00A901481B590BCA0180703B
:1003A00090789923A1F308951F920F920FB60F92A0
:1003B00011240F900FBE0F901F9018951F920F924F
:1003C0000FB60F9211241F932F933F934F935F9378
:1003D0006F937F938F939F93AF93BF93EF93FF930D
:1003E000209166003091670052EA71E4BAE061E062
:1003F000ACE0F1E6E8E012E088B190E045E09695E7
:1004000087954A95E1F7482F417090916D009230A1
:10041000F1F1933030F4992371F0913009F07EC0FE
:100420001CC0943009F454C0943008F441C0953095
:1004300009F074C05FC05FBDF5BDE7BB442341F068
:1004400082B3877E82BB959A64BD409867B913C01A
:1004500082B3877D82BB949A61C082B3877E82BB60
:10046000959A442381F45FBD75BDA7BB94BD17B8B1
:1004700088B1836088B980916D008F5F80936D0033
:100480002F5F3F4F4BC05FBDF5BDE7BB47C05FBDB2
:1004900075BDA7BB442339F082B38F7C82BB939A8E
:1004A00064BD97B920C082B3877E82BB959A36C05F
:1004B00082B38F7C82BB939A442331F45FBD75BDB8
:1004C000B7BB64BD67B9D4CF5FBD75BDA7BB26C040
:1004D0005FBD75BDB7BB442341F082B3877D82BB4E
:1004E000949A64BD17B84098C6CF82B38F7C82BB04
:1004F000939A14C082B3877D82BB949A442359F4A3
:100500005FBDF5BDE7BB64BD17B988B1836088B92D
:1005100010926D00B5CF5FBD75BDB7BB459903C0E7
:10052000442309F069CF459B03C0442309F464CFF9
:100530003093670020936600FF91EF91BF91AF91D8
:100540009F918F917F916F915F914F913F912F91EB
:100550001F910F900FBE0F901F90189590916D00F6
:10056000923041F1933030F4992361F0913009F0E9
:1005700057C014C09430C1F1943040F1953009F067
:100580004FC042C082EA8FBD81E685BD88E087BB4F
:1005900082B3877D82BB949A82E031C082EA8FBDAC
:1005A00081E685BD88E087BB82B3877E82BB959A52
:1005B00097B918C082EA8FBD81E485BD8CE087BB06
:1005C00082B3877E82BB959A17B81AC082EA8FBD24
:1005D00081E485BD8CE087BB82B38F7C82BB939A1C
:1005E00082E087B94098089582EA8FBD81E485BD95
:1005F0008AE087BB82B38F7C82BB939A81E087B904
:1006000088B1836088B9089582EA8FBD81E485BD91
:100610008AE087BB82B3877D82BB949A17B84098E3
:100620000895991B79E004C0991F961708F0961B4E
:10063000881F7A95C9F780950895A1E21A2EAA1B02
:10064000BB1BFD010DC0AA1FBB1FEE1FFF1FA21782
:10065000B307E407F50720F0A21BB30BE40BF50B7F
:10066000661F771F881F991F1A9469F76095709508
:10067000809590959B01AC01BD01CF01089502D0FA
:10068000272F01C0262FE199FECF9FBB8EBB2DBB2C
:100690000FB6F894E29AE19A0FBE01960895F89485
:0206A000FFCF8A
:0406A20001016400EE
:00000001FF
