:1000000012C0B5C32BC02AC017C423C327C026C043
:100010000FC357C223C022C021C020C01FC01EC0B2
:1000200078C4B9C31BC011241FBECFE5D4E0DEBF26
:10003000CDBF10E0A0E6B0E0ECE9FBE002C0059027
:100040000D92A836B107D9F712E0A8E6B0E001C0DA
:100050001D92AF38B107E1F7CBD09EC5D1CF20912B
:10006000680080916400821710F4AB9A282F809169
:100070006A0090916B008338910560F01BBC1ABC3C
:1000800019BC18BC13BCAB9A019790936B0080937A
:100090006A000895822F90E0880F991F9BBD8ABD4A
:1000A00099BD88BD23BD089582E08FBD81E485BDE3
:1000B00085B3817F85BB89E08EBD089592B7980F87
:1000C00082B7891B87FDFCCF0895809170009091C5
:1000D0007100892B89F480917200882359F48091F2
:1000E0007C0090917D00009729F0019790937D000E
:1000F00080937C00AB9A07C080918E0280937C0035
:1001000010927D00AB9880917C0090917D008F3F94
:10011000910539F030F08FEF90E090937D0080935F
:100120007C0080917C000895DF92EF92FF920F9304
:100130001F93D82E10928C00439885E090E0909306
:100140006900809368008BDF81D388EC90E00ED249
:10015000D0926800109269005CE2E52E51E0F52E25
:10016000012D112D20E030E040E050E082B78C59A5
:10017000982F82B7891B87FDFCCF2F5F3F4F4F4FD2
:100180005F4F2E153F054007510780F3C801B701A7
:100190002FE030E040E050E0DDD4209530954095F0
:1001A0005095E20EF31E041F151F89E1E816F104B5
:1001B0000105110528F449E1E42EF12C012D112D42
:1001C00045D380918A008F5F80938A0080918A0056
:1001D00066E0A0D490938A00E4D1D0926800109297
:1001E00069003DDF449BBECF82B3805882BBBACF4B
:1001F0002F923F924F925F926F927F928F929F9237
:10020000AF92BF92CF92DF92EF92FF920F931F9324
:10021000CF93DF9388E084BB85BB8AEB81BB80E80A
:1002200082BB8EE087BB81E388BB83D17894C0E03A
:10023000D0E004C0C430D10509F4979A86E990E073
:1002400095D197988AEF90E091D12196C530D1054C
:100250008CF384EF91E08AD182E08FBD81E485BD8B
:1002600085B3817F85BB89E08EBDD5D185E690E0E1
:1002700069D186E690E066D187E690E063D1EC0133
:100280008EEF90E05FD15C018DEE93E05BD17C015D
:100290008EEE93E057D16C01CE015ED18823E1F35D
:1002A000979A1092690010926800D9DE88E080BFAA
:1002B00081E087B98AE090E045D1EC018EE134DF3E
:1002C00010E0BEE12B2E312C99249394A2E08A2ECB
:1002D000F1E04F2E512CEAE06E2E712C01C0102F50
:1002E000F4DE309269002092680000918A000117C4
:1002F00051F0109263001092620082E390E022D1EC
:10030000EC0100918A008091680090916900892B2E
:10031000B9F41092770010926200C7011DD18823B2
:10032000C1F010928C0043989092630082B3877C56
:1003300082BB8FBC81E485BD85B3817F85BB09C04D
:1003400080916300882311F0909277008CED95E006
:10035000F9D080916300882321F0109269001092F7
:1003600068007DDE809162008F5F80936200815023
:1003700009F0B5CF809163008111979AC501ECD047
:10038000882339F182E390E0DDD05C0180916D003B
:10039000482F50E020916A0030916B0042175307BC
:1003A00010F48F5F04C02417350718F48150809330
:1003B0006D0080916D0090916400823428F091501E
:1003C00090936400AB9A05C09F3F19F09F5F909394
:1003D0006400C701C1D08823D1F08AE090E0B2D098
:1003E0007C012091780030917900C901880F991F14
:1003F000820F931F880F991F66E070E097D3709368
:100400007B0060937A001092790010927800C60108
:10041000A3D0882321F08CED95E094D06C01CE011F
:100420009BD0882331F080917A0090917B00892BBA
:1004300029F080917700882309F451CF90926300CE
:1004400010928C00439884E690E07CD0EC0180917F
:100450007700882309F443CFAB98109277008AE0A5
:1004600063DE979A1092630080918A008150809396
:100470008A005092690040926800F1DD88B18C7F5B
:1004800088B990928C0088B18A6088B984E690E03F
:1004900059D0EC01CE0160D08823E1F3709269005D
:1004A00060926800DCDD88EC90E04CD0EC01CE017D
:1004B00053D08823E1F388EE93E044D0EC0107E0C9
:1004C0000ECF1F920F920FB60F9211248F939F930E
:1004D00080918D028F5F80938D028091800081508A
:1004E000809380008F5FF1F483E08093800080919F
:1004F0007E0090917F00019690937F0080937E0014
:100500008091700090917100009729F0019790936D
:1005100071008093700080917200882319F08150DF
:10052000809372009F918F910F900FBE0F901F903C
:10053000189582E083BF89B7816089BF89B78064DD
:1005400089BF089520917E0030917F002150304076
:10055000280F391FC901089520917E0030917F0036
:10056000821B930B80709078892F089520917E00D4
:1005700030917F0021503040280F391F80917E003C
:1005800090917F00A901481B590BCA018070907897
:100590009923A1F3089586EA86B987E087B9369A48
:1005A000089527B196E097B910BE83ED86B9349AC5
:1005B00097B9369A349BFECF27B944B155B1440F51
:1005C000551F440F551F493C510510F048EC50E0B1
:1005D00080916A0090916B009C0163E0220F331FB1
:1005E0006A95E1F7281B390B240F351F83E03695F8
:1005F00027958A95E1F730936B0020936A008091EC
:100600006C0090E08217930710F420936C0016B8EA
:1006100088E080BF08958EB5806C8EBD8EB58064F5
:100620008EBD89B7806289BF89B7846089BF08950C
:100630001F920F920FB60F9211248F938091830017
:100640008F5F809383008F910F900FBE0F901F904C
:1006500018951F920F920FB60F9211242F933F936C
:100660004F935F938F939F930EB406FE0FC010922B
:10067000830086B597B590938800809387008EB5E8
:100680008F7B8EBD84E68093840066C08EB58064C7
:100690008EBD26B537B5409183008091870090913B
:1006A0008800281B390B942F990F80E0280F391FE1
:1006B00085E0369527958A95E1F73093860020935B
:1006C00085002851314030F488E191E09093860014
:1006D000809385004091850050918600485151409B
:1006E00080918100909182008417950730F4809169
:1006F00081009091820001960CC0809181009091C0
:1007000082004817590748F4809181009091820037
:100710000197909382008093810080918100909155
:1007200082009C01220F331F220F331F220F331F21
:10073000281B390B240F351F83E0369527958A95A2
:10074000E1F7309386002093850030938200209358
:10075000810081E0809365009F918F915F914F911F
:100760003F912F910F900FBE0F901F9018951F92E1
:100770000F920FB60F9211248F938AB78F7B8ABF87
:100780008F910F900FBE0F901F9018958EE082B939
:1007900085EC86BF08951F920F920FB60F92112419
:1007A0008F939F9381B190E0887F907080389105FE
:1007B000C9F08138910534F4009791F180369105A4
:1007C00091F50AC0883B9105B9F0883F910529F160
:1007D000883A910541F510C086B7806886BF1092AF
:1007E000890023C083B180938E0284EF91E09093BF
:1007F0007100809370000EC080918900882339F4C5
:1008000080916D0083B981E08093890003C080915D
:10081000640083B986B7806807C086B7806986BFE1
:1008200086B7806986BF85EC86BF9F918F910F90B8
:100830000FBE0F901F9018951F920F920FB60F9238
:1008400011240F900FBE0F901F90189590918A0061
:10085000923041F1933030F4992361F0913009F0F6
:1008600057C014C09430C1F1943040F1953009F074
:100870004FC042C082EA8FBD81E685BD88E087BB5C
:1008800082B3877D82BB949A82E031C082EA8FBDB9
:1008900081E685BD88E087BB82B3877E82BB959A5F
:1008A00097B918C082EA8FBD81E485BD8CE087BB13
:1008B00082B3877E82BB959A17B81AC082EA8FBD31
:1008C00081E485BD8CE087BB82B38F7C82BB939A29
:1008D00082E087B94098089582EA8FBD81E485BDA2
:1008E0008AE087BB82B38F7C82BB939A81E087B911
:1008F00088B1836088B9089582EA8FBD81E485BD9F
:100900008AE087BB82B3877D82BB949A17B84098F0
:1009100008951F920F920FB60F9211249F92AF92DB
:10092000BF92CF92DF92EF92FF920F931F932F937C
:100930003F934F935F936F937F938F939F93AF9367
:10094000BF93EF93FF9302EAE1E4EE2E7AE0A72E45
:10095000FF24F3946CE0B62E51E6C52E48E0D42E69
:1009600032E0932E88B190E025E0969587952A9500
:10097000E1F7182F117090918A00923009F44DC060
:10098000933030F4992371F0913009F09DC020C06C
:10099000943009F46BC0943008F454C0953009F0D9
:1009A00093C07AC00FBDC5BCD7BA112361F082B322
:1009B000877E82BB959AF4BC809165008111F1DD40
:1009C0004098F7B817C082B3877D82BB949A7CC0E9
:1009D00082B3877E82BB959A1123D9F40FBDE5BC03
:1009E000B7BA94BD809165008111DBDD17B888B17D
:1009F000836088B980918A008F5F80938A0080919C
:100A00007800909179000196909379008093780016
:100A10005BC00FBDC5BCD7BA57C00FBDE5BCB7BAE8
:100A2000112359F082B38F7C82BB939AF4BC8091DE
:100A300065008111B6DD97B828C082B3877E82BB7E
:100A4000959A42C082B38F7C82BB939A112351F452
:100A50000FBDE5BCA7BAF4BC809165008111A1DD92
:100A6000F7B8C5CF0FBDE5BCB7BA2EC00FBDE5BC0A
:100A7000A7BA112361F082B3877D82BB949AF4BC3C
:100A80008091650081118DDD17B84098B3CF82B396
:100A90008F7C82BB939A18C082B3877D82BB949A65
:100AA000112379F40FBDC5BCD7BAF4BC80916500A1
:100AB000811177DD97B888B1836088B910928A0078
:100AC0009ECF0FBDE5BCA7BA459903C0112309F01D
:100AD00049CF459B03C0112309F444CF1092650010
:100AE000FF91EF91BF91AF919F918F917F916F9106
:100AF0005F914F913F912F911F910F91FF90EF9038
:100B0000DF90CF90BF90AF909F900F900FBE0F904F
:100B10001F901895991B79E004C0991F961708F04B
:100B2000961B881F7A95C9F780950895AA1BBB1B51
:100B300051E107C0AA1FBB1FA617B70710F0A61BDD
:100B4000B70B881F991F5A95A9F780959095BC01FE
:100B5000CD010895A1E21A2EAA1BBB1BFD010DC0F9
:100B6000AA1FBB1FEE1FFF1FA217B307E407F5075D
:100B700020F0A21BB30BE40BF50B661F771F881F39
:100B8000991F1A9469F760957095809590959B01CF
:0C0B9000AC01BD01CF010895F894FFCF27
:080B9C000A000101FF016400E1
:00000001FF
